{
    "_format": "hh-sol-artifact-1",
    "contractName": "RastrearPecas",
    "sourceName": "contracts/RastrearPecas.sol",
    "abi": [
        {
            "anonymous": false,
            "inputs": [
                {
                    "indexed": false,
                    "internalType": "uint256",
                    "name": "id",
                    "type": "uint256"
                },
                {
                    "indexed": false,
                    "internalType": "string",
                    "name": "name",
                    "type": "string"
                },
                {
                    "indexed": false,
                    "internalType": "string",
                    "name": "manufacturer",
                    "type": "string"
                },
                {
                    "indexed": false,
                    "internalType": "address",
                    "name": "owner",
                    "type": "address"
                }
            ],
            "name": "PartRegistered",
            "type": "event"
        },
        {
            "anonymous": false,
            "inputs": [
                {
                    "indexed": false,
                    "internalType": "uint256",
                    "name": "id",
                    "type": "uint256"
                },
                {
                    "indexed": false,
                    "internalType": "string",
                    "name": "status",
                    "type": "string"
                },
                {
                    "indexed": false,
                    "internalType": "address",
                    "name": "newOwner",
                    "type": "address"
                }
            ],
            "name": "PartUpdated",
            "type": "event"
        },
        {
            "inputs": [
                {
                    "internalType": "uint256",
                    "name": "_id",
                    "type": "uint256"
                }
            ],
            "name": "getPart",
            "outputs": [
                {
                    "components": [
                        {
                            "internalType": "uint256",
                            "name": "id",
                            "type": "uint256"
                        },
                        {
                            "internalType": "string",
                            "name": "name",
                            "type": "string"
                        },
                        {
                            "internalType": "string",
                            "name": "manufacturer",
                            "type": "string"
                        },
                        {
                            "internalType": "string",
                            "name": "status",
                            "type": "string"
                        },
                        {
                            "internalType": "address",
                            "name": "owner",
                            "type": "address"
                        },
                        {
                            "internalType": "uint256",
                            "name": "timestamp",
                            "type": "uint256"
                        }
                    ],
                    "internalType": "struct RastrearPecas.Part",
                    "name": "",
                    "type": "tuple"
                }
            ],
            "stateMutability": "view",
            "type": "function"
        },
        {
            "inputs": [],
            "name": "nextId",
            "outputs": [
                {
                    "internalType": "uint256",
                    "name": "",
                    "type": "uint256"
                }
            ],
            "stateMutability": "view",
            "type": "function"
        },
        {
            "inputs": [
                {
                    "internalType": "uint256",
                    "name": "",
                    "type": "uint256"
                }
            ],
            "name": "parts",
            "outputs": [
                {
                    "internalType": "uint256",
                    "name": "id",
                    "type": "uint256"
                },
                {
                    "internalType": "string",
                    "name": "name",
                    "type": "string"
                },
                {
                    "internalType": "string",
                    "name": "manufacturer",
                    "type": "string"
                },
                {
                    "internalType": "string",
                    "name": "status",
                    "type": "string"
                },
                {
                    "internalType": "address",
                    "name": "owner",
                    "type": "address"
                },
                {
                    "internalType": "uint256",
                    "name": "timestamp",
                    "type": "uint256"
                }
            ],
            "stateMutability": "view",
            "type": "function"
        },
        {
            "inputs": [
                {
                    "internalType": "string",
                    "name": "_name",
                    "type": "string"
                },
                {
                    "internalType": "string",
                    "name": "_manufacturer",
                    "type": "string"
                }
            ],
            "name": "registerPart",
            "outputs": [],
            "stateMutability": "nonpayable",
            "type": "function"
        },
        {
            "inputs": [
                {
                    "internalType": "uint256",
                    "name": "_id",
                    "type": "uint256"
                },
                {
                    "internalType": "string",
                    "name": "_status",
                    "type": "string"
                },
                {
                    "internalType": "address",
                    "name": "_newOwner",
                    "type": "address"
                }
            ],
            "name": "updatePartStatus",
            "outputs": [],
            "stateMutability": "nonpayable",
            "type": "function"
        }
    ],
    "bytecode": "0x6080604052348015600f57600080fd5b506113bf8061001f6000396000f3fe608060405234801561001057600080fd5b50600436106100575760003560e01c806308265c691461005c578063304fe3501461007857806361b8ce8c146100a8578063c3b20582146100c6578063c9eb4662146100e2575b600080fd5b61007660048036038101906100719190610aae565b610117565b005b610092600480360381019061008d9190610b5c565b6102a0565b60405161009f9190610cef565b60405180910390f35b6100b0610543565b6040516100bd9190610d20565b60405180910390f35b6100e060048036038101906100db9190610d67565b610549565b005b6100fc60048036038101906100f79190610b5c565b610714565b60405161010e96959493929190610e2f565b60405180910390f35b6040518060c0016040528060015481526020018381526020018281526020016040518060400160405280600981526020017f50726f64757a696461000000000000000000000000000000000000000000000081525081526020013373ffffffffffffffffffffffffffffffffffffffff1681526020014281525060008060015481526020019081526020016000206000820151816000015560208201518160010190816101c491906110b1565b5060408201518160020190816101da91906110b1565b5060608201518160030190816101f091906110b1565b5060808201518160040160006101000a81548173ffffffffffffffffffffffffffffffffffffffff021916908373ffffffffffffffffffffffffffffffffffffffff16021790555060a082015181600501559050507fabef48cc132888705a79692fda34b7ff37828de0d81db33b4236306e215f409160015483833360405161027c9493929190611183565b60405180910390a16001600081548092919061029790611205565b91905055505050565b6102a8610908565b8160008084815260200190815260200160002060000154146102ff576040517f08c379a00000000000000000000000000000000000000000000000000000000081526004016102f690611299565b60405180910390fd5b6000808381526020019081526020016000206040518060c00160405290816000820154815260200160018201805461033690610ed4565b80601f016020809104026020016040519081016040528092919081815260200182805461036290610ed4565b80156103af5780601f10610384576101008083540402835291602001916103af565b820191906000526020600020905b81548152906001019060200180831161039257829003601f168201915b505050505081526020016002820180546103c890610ed4565b80601f01602080910402602001604051908101604052809291908181526020018280546103f490610ed4565b80156104415780601f1061041657610100808354040283529160200191610441565b820191906000526020600020905b81548152906001019060200180831161042457829003601f168201915b5050505050815260200160038201805461045a90610ed4565b80601f016020809104026020016040519081016040528092919081815260200182805461048690610ed4565b80156104d35780601f106104a8576101008083540402835291602001916104d3565b820191906000526020600020905b8154815290600101906020018083116104b657829003601f168201915b505050505081526020016004820160009054906101000a900473ffffffffffffffffffffffffffffffffffffffff1673ffffffffffffffffffffffffffffffffffffffff1673ffffffffffffffffffffffffffffffffffffffff1681526020016005820154815250509050919050565b60015481565b8260008085815260200190815260200160002060000154146105a0576040517f08c379a000000000000000000000000000000000000000000000000000000000815260040161059790611299565b60405180910390fd5b60008084815260200190815260200160002060040160009054906101000a900473ffffffffffffffffffffffffffffffffffffffff1673ffffffffffffffffffffffffffffffffffffffff163373ffffffffffffffffffffffffffffffffffffffff1614610643576040517f08c379a000000000000000000000000000000000000000000000000000000000815260040161063a9061132b565b60405180910390fd5b81600080858152602001908152602001600020600301908161066591906110b1565b508060008085815260200190815260200160002060040160006101000a81548173ffffffffffffffffffffffffffffffffffffffff021916908373ffffffffffffffffffffffffffffffffffffffff16021790555042600080858152602001908152602001600020600501819055507f27feb536e4d38c6cbb15de0289b2a1a517926a9f0323a584b39d2a0a553e286d8383836040516107079392919061134b565b60405180910390a1505050565b600060205280600052604060002060009150905080600001549080600101805461073d90610ed4565b80601f016020809104026020016040519081016040528092919081815260200182805461076990610ed4565b80156107b65780601f1061078b576101008083540402835291602001916107b6565b820191906000526020600020905b81548152906001019060200180831161079957829003601f168201915b5050505050908060020180546107cb90610ed4565b80601f01602080910402602001604051908101604052809291908181526020018280546107f790610ed4565b80156108445780601f1061081957610100808354040283529160200191610844565b820191906000526020600020905b81548152906001019060200180831161082757829003601f168201915b50505050509080600301805461085990610ed4565b80601f016020809104026020016040519081016040528092919081815260200182805461088590610ed4565b80156108d25780601f106108a7576101008083540402835291602001916108d2565b820191906000526020600020905b8154815290600101906020018083116108b557829003601f168201915b5050505050908060040160009054906101000a900473ffffffffffffffffffffffffffffffffffffffff16908060050154905086565b6040518060c0016040528060008152602001606081526020016060815260200160608152602001600073ffffffffffffffffffffffffffffffffffffffff168152602001600081525090565b6000604051905090565b600080fd5b600080fd5b600080fd5b600080fd5b6000601f19601f8301169050919050565b7f4e487b7100000000000000000000000000000000000000000000000000000000600052604160045260246000fd5b6109bb82610972565b810181811067ffffffffffffffff821117156109da576109d9610983565b5b80604052505050565b60006109ed610954565b90506109f982826109b2565b919050565b600067ffffffffffffffff821115610a1957610a18610983565b5b610a2282610972565b9050602081019050919050565b82818337600083830152505050565b6000610a51610a4c846109fe565b6109e3565b905082815260208101848484011115610a6d57610a6c61096d565b5b610a78848285610a2f565b509392505050565b600082601f830112610a9557610a94610968565b5b8135610aa5848260208601610a3e565b91505092915050565b60008060408385031215610ac557610ac461095e565b5b600083013567ffffffffffffffff811115610ae357610ae2610963565b5b610aef85828601610a80565b925050602083013567ffffffffffffffff811115610b1057610b0f610963565b5b610b1c85828601610a80565b9150509250929050565b6000819050919050565b610b3981610b26565b8114610b4457600080fd5b50565b600081359050610b5681610b30565b92915050565b600060208284031215610b7257610b7161095e565b5b6000610b8084828501610b47565b91505092915050565b610b9281610b26565b82525050565b600081519050919050565b600082825260208201905092915050565b60005b83811015610bd2578082015181840152602081019050610bb7565b60008484015250505050565b6000610be982610b98565b610bf38185610ba3565b9350610c03818560208601610bb4565b610c0c81610972565b840191505092915050565b600073ffffffffffffffffffffffffffffffffffffffff82169050919050565b6000610c4282610c17565b9050919050565b610c5281610c37565b82525050565b600060c083016000830151610c706000860182610b89565b5060208301518482036020860152610c888282610bde565b91505060408301518482036040860152610ca28282610bde565b91505060608301518482036060860152610cbc8282610bde565b9150506080830151610cd16080860182610c49565b5060a0830151610ce460a0860182610b89565b508091505092915050565b60006020820190508181036000830152610d098184610c58565b905092915050565b610d1a81610b26565b82525050565b6000602082019050610d356000830184610d11565b92915050565b610d4481610c37565b8114610d4f57600080fd5b50565b600081359050610d6181610d3b565b92915050565b600080600060608486031215610d8057610d7f61095e565b5b6000610d8e86828701610b47565b935050602084013567ffffffffffffffff811115610daf57610dae610963565b5b610dbb86828701610a80565b9250506040610dcc86828701610d52565b9150509250925092565b600082825260208201905092915050565b6000610df282610b98565b610dfc8185610dd6565b9350610e0c818560208601610bb4565b610e1581610972565b840191505092915050565b610e2981610c37565b82525050565b600060c082019050610e446000830189610d11565b8181036020830152610e568188610de7565b90508181036040830152610e6a8187610de7565b90508181036060830152610e7e8186610de7565b9050610e8d6080830185610e20565b610e9a60a0830184610d11565b979650505050505050565b7f4e487b7100000000000000000000000000000000000000000000000000000000600052602260045260246000fd5b60006002820490506001821680610eec57607f821691505b602082108103610eff57610efe610ea5565b5b50919050565b60008190508160005260206000209050919050565b60006020601f8301049050919050565b600082821b905092915050565b600060088302610f677fffffffffffffffffffffffffffffffffffffffffffffffffffffffffffffffff82610f2a565b610f718683610f2a565b95508019841693508086168417925050509392505050565b6000819050919050565b6000610fae610fa9610fa484610b26565b610f89565b610b26565b9050919050565b6000819050919050565b610fc883610f93565b610fdc610fd482610fb5565b848454610f37565b825550505050565b600090565b610ff1610fe4565b610ffc818484610fbf565b505050565b5b8181101561102057611015600082610fe9565b600181019050611002565b5050565b601f8211156110655761103681610f05565b61103f84610f1a565b8101602085101561104e578190505b61106261105a85610f1a565b830182611001565b50505b505050565b600082821c905092915050565b60006110886000198460080261106a565b1980831691505092915050565b60006110a18383611077565b9150826002028217905092915050565b6110ba82610b98565b67ffffffffffffffff8111156110d3576110d2610983565b5b6110dd8254610ed4565b6110e8828285611024565b600060209050601f83116001811461111b5760008415611109578287015190505b6111138582611095565b86555061117b565b601f19841661112986610f05565b60005b828110156111515784890151825560018201915060208501945060208101905061112c565b8683101561116e578489015161116a601f891682611077565b8355505b6001600288020188555050505b505050505050565b60006080820190506111986000830187610d11565b81810360208301526111aa8186610de7565b905081810360408301526111be8185610de7565b90506111cd6060830184610e20565b95945050505050565b7f4e487b7100000000000000000000000000000000000000000000000000000000600052601160045260246000fd5b600061121082610b26565b91507fffffffffffffffffffffffffffffffffffffffffffffffffffffffffffffffff8203611242576112416111d6565b5b600182019050919050565b7f50656361206e616f20656e636f6e747261646100000000000000000000000000600082015250565b6000611283601383610dd6565b915061128e8261124d565b602082019050919050565b600060208201905081810360008301526112b281611276565b9050919050565b7f4170656e6173206f20646f6e6f20706f646520617475616c697a6172206f207360008201527f7461747573000000000000000000000000000000000000000000000000000000602082015250565b6000611315602583610dd6565b9150611320826112b9565b604082019050919050565b6000602082019050818103600083015261134481611308565b9050919050565b60006060820190506113606000830186610d11565b81810360208301526113728185610de7565b90506113816040830184610e20565b94935050505056fea26469706673582212201ee407324e63bacec7cb2746c38ca7e8df4e42ff1f4d91ad6155579f9aa23ab964736f6c634300081c0033",
    "linkReferences": {},
    "deployedLinkReferences": {}
}